:100000000C942A000C9447000C9447000C94470071
:100010000C9447000C9447000C9447000C94470044
:100020000C9447000C9447000C9447000C94470034
:100030000C9447000C9455010C947D010C944700DE
:100040000C9447000C9447000C9447000C94470014
:100050000C94470011241FBECFE5D8E0DEBFCDBF12
:1000600010E0A0E6B0E0E2E8F4E002C005900D92F6
:10007000A636B107D9F710E0A6E6B0E001C01D92A0
:10008000AB38B107E1F70E9449000C943F020C9491
:100090000000CF93DF93D0988BB38FEF8BBB10BC56
:1000A00087E689B988E18AB986E880BD8AB188691E
:1000B0008AB9789480E690E00E94EF00C0E9D1E030
:1000C000C8990BC081E30E94DD0084EF91E0FE013E
:1000D0003197F1F70197D9F7F3CFC9990BC082E3B4
:1000E0000E94DD0084EF91E0FE013197F1F7019766
:1000F000D9F7E6CFCA990BC083E30E94DD0084EFF5
:1001000091E0FE013197F1F70197D9F7D9CFCB995B
:100110000BC084E30E94DD0084EF91E0FE01319783
:10012000F1F70197D9F7CCCFCC990BC085E30E94AA
:10013000DD0084EF91E0FE013197F1F70197D9F7E7
:10014000BFCFCD990BC086E30E94DD0084EF91E024
:10015000FE013197F1F70197D9F7B2CFCE990BC0D5
:1001600087E30E94DD0084EF91E0FE013197F1F713
:100170000197D9F7A5CFCF99A3CF88E30E94DD00DF
:1001800084EF91E0FE013197F1F70197D9F798CF0D
:100190009C0140E050E060E472E48FE090E00E9457
:1001A00009022150304030BD29B988E18AB986E87A
:1001B00080BD8AB188698AB90895282F9091680016
:1001C0009F5F9F70809169009817E1F3E92FF0E03D
:1001D000E559FF4F208390936800559A0895DC01FC
:1001E00010C0909168009F5F9F7080916900981780
:1001F000E1F3E92FF0E0E559FF4F20839093680089
:10020000559A2D91222369F7089590916700809166
:100210006600981711F480E00895809167008F5F61
:100220008F7080936700E0916700F0E0E558FF4F22
:100230008081089520E030E0909167008091660011
:100240009817D1F3809167008F5F8F70809367005C
:10025000E0916700F0E0E558FF4F4081442361F3EF
:100260004D3009F1909168009F5F9F708091690007
:100270009817E1F3E92FF0E0E559FF4F40839093A1
:100280006800559AC90163E0880F991F6A95E1F7E4
:10029000220F331F820F931F242F30E02053304052
:1002A000280F391FC9CFC90108951F920F920FB6A9
:1002B0000F9211248F939F93EF93FF939091660079
:1002C0009F5F9F7080916700981751F09093660030
:1002D000E0916600F0E08CB1E558FF4F808304C0E8
:1002E00081E080936A008CB1FF91EF919F918F9193
:1002F0000F900FBE0F901F9018951F920F920FB680
:100300000F9211248F939F93EF93FF939091690025
:1003100080916800981771F0809169008F5F8F70ED
:1003200080936900E0916900F0E0E559FF4F80811A
:100330008CB901C05598FF91EF919F918F910F90CB
:100340000FBE0F901F9018950F931F93DF93CF93BD
:10035000CDB7DEB764970FB6F894DEBF0FBECDBF42
:10036000462F8E010F5F1F4FB80150E00E94D80149
:10037000D80110C0909168009F5F9F7080916900C4
:100380009817E1F3E92FF0E0E559FF4F20839093B0
:100390006800559A2D91222369F764960FB6F89458
:1003A000DEBF0FBECDBFCF91DF911F910F9108959A
:1003B000FB019F01E8944230C4F04532B4F44A3066
:1003C00029F497FB1EF4909581959F4F642F772712
:1003D0000E942B02805D8A330CF0895D8193CB01F2
:1003E0000097A1F716F45DE251931082C9010C94B5
:1003F000F901DC01FC01672F71917723E1F7329756
:1004000004C07C916D9370836291AE17BF07C8F3EF
:100410000895A1E21A2EAA1BBB1BFD010DC0AA1F45
:10042000BB1FEE1FFF1FA217B307E407F50720F05D
:10043000A21BB30BE40BF50B661F771F881F991FD8
:100440001A9469F760957095809590959B01AC0121
:10045000BD01CF010895AA1BBB1B51E107C0AA1F14
:10046000BB1FA617B70710F0A61BB70B881F991F55
:100470005A95A9F780959095BC01CD010895F894FF
:02048000FFCFAC
:060482007369656D610065
:00000001FF
