:100000000C942A000C9447000C9447000C94470071
:100010000C9447000C9447000C9447000C94470044
:100020000C9447000C94F5000C9447000C94470086
:100030000C9447000C9447000C9447000C94470024
:100040000C9447000C9447000C9447000C94470014
:100050000C94470011241FBECFE5D8E0DEBFCDBF12
:1000600010E0A0E6B0E0E0EDF2E002C005900D92F5
:10007000A236B107D9F710E0A2E6B0E001C01D92A8
:10008000AC36B107E1F70E9449000C9466010C946C
:1000900000008AB38F608ABBA098D89A8BB38F6018
:1000A0008BBB8FEF9FEF9DBD8CBD8EB585608EBDE8
:1000B00089B7846089BF7894EFEFFFEF21E030E0EB
:1000C00064E070E042E050E0989911C080916200D5
:1000D00090916300892B59F4109261001092600096
:1000E000FDBDECBD3093630020936200EDCF989985
:1000F00020C080916200909163000197D1F48091BB
:100100006800909169008436910554F480916800EC
:100110009091690001969093690080936800D4CF14
:10012000509363004093620010926900109268003F
:10013000CBCF989911C08091620090916300029793
:1001400059F48091640090916500892B29F43093D3
:10015000670020936600B8CF8091620090916300A1
:100160000297F9F480916400909165000197C9F4B9
:100170008091660090916700019799F41092610058
:10018000109260001DBC1CBC1092630010926200B3
:100190001092650010926400109267001092660041
:1001A00093CF8091620090916300029709F08CCF09
:1001B0008091640090916500019709F085CF80914E
:1001C000660090916700892B09F07ECF70936100E3
:1001D000609360001DBC1CBC10926500109264000E
:1001E00010926300109262006FCF1F920F920FB6B1
:1001F0000F9211242F933F938F939F9380916000D0
:10020000909161008130910589F0823091051CF454
:10021000892B39F042C08230910571F00397E9F5DE
:100220002AC0DA9AD99886EE98E42BC0D99AD89841
:10023000DB981DBC1CBC27C08BB398E089278BBB07
:100240002BE731EE3DBD2CBD80916A0090916B0093
:10025000019690936B0080936A00059761F483E0A8
:1002600090E0909361008093600010926B00109278
:100270006A003DBD2CBD8BB389608BBBD99887EFDD
:1002800092EC9DBD8CBD80916000909161000196C3
:10029000909361008093600010C0D99ADA981DBCD9
:1002A0001CBC84E090E0909361008093600081E04A
:1002B00090E090936500809364009F918F913F91AF
:1002C0002F910F900FBE0F901F901895F894FFCFAD
:0202D000040028
:00000001FF
